:020000041000EA
:10000000002008205D0100101301001015010010F0
:100010001101001011010010110100101101001058
:100020001101001011010010110100101701001042
:100030001101001011010010190100101B01001026
:100040001D0100101D0100101D0100101D010010F8
:100050001D0100101D0100101D0100101D010010E8
:100060001D0100101D0100101D0100101D010010D8
:100070001D0100101D0100101D0100101D010010C8
:100080001D0100101D0100101D0100101D010010B8
:100090001D0100101D0100101D0100101D010010A8
:1000A0001D0100101D0100101D0100101D01001098
:1000B0001D0100101D0100101D0100101D01001088
:1000C0001D0100101D0100101D0100101D01001078
:1000D0001D0100101D0100101D0100101D01001068
:1000E0001D0100101D0100101D0100101D01001058
:1000F0001D0100101D0100101D0100101D01001048
:100100001D0100101D0100101D0100101D01001037
:1001100000BE00BE00BE00BE00BE00BEEFF3058004
:10012000103800BEF2EB8871301E00105C1E00100B
:10013000A801001090A31AE7D3DEFFFF42012110AF
:10014000FF010000942F0000793512AB4FF0000042
:100150002049086006C881F3088810474FF05040D6
:10016000006810B14FF00000F2E70FA40ECC002998
:1001700002D000F015F8F9E71749184A002000E00E
:1001800001C19142FCD1002080F30A8814498847BC
:10019000144988471449884700BEFDE701C901C2D8
:1001A0009A42FBD3704700BF5C1E00101001002074
:1001B00080130020CC300010000008200000082030
:1001C000CC300010001008200010082000000000B3
:1001D0007047000008ED00E080130020EC160020BE
:1001E000491400103D02001041140010F8B500BF82
:1001F000064B0749C91A891048BF0131491003D07D
:10020000044B0BB101481847704700BF8013002012
:10021000801300200000000008B5054B1BB1054904
:100220000548AFF30080BDE80840FFF7E1BF00BF1D
:10023000000000009C160020581C001010B501F0B2
:10024000FBF92649264801F0A9FB0321102000F004
:1002500049F80321112000F045F800220121102067
:1002600000F05EF800220121112000F059F8022070
:1002700000F06AF84FF00004022044EC4400012131
:10028000002200F04DF8062000F05EF8062044EC55
:1002900044000121002200F043F8042000F054F84B
:1002A000042044EC44000121002200F039F805202C
:1002B00000F04AF8052044EC44000121002200F03F
:1002C0002FF8072000F040F8072044EC44000121FB
:1002D000002200F025F8002010BD00BF801A0600A3
:1002E0002C12002010B44FF480740C4B53F82020D3
:1002F00003EB8003C00082F0400200F1804003F570
:10030000805C02F0C00200F5203003F54053CCF8C9
:10031000002041601C605DF8044B7047048003407E
:1003200010B4084CC90041EA820154F8202004EBC3
:100330008003514003F5805301F00C015DF8044B3C
:10034000196070470480034030B44FF0000343EC61
:10035000440043EC400005254FF480740B4BC20071
:1003600053F8201003EB800081F0400102F180433C
:1003700003F5203301F0C00200F5805100F5405034
:100380000A605D60046030BC704700BF04800340B9
:100390000FB400B583B0049C074801F095F93CB157
:1003A00005A92046019101F02BF8044801F08CF9D1
:1003B000012001F03DF800BF581C0010681C00101F
:1003C00070B58646EFF3108572B6124CD4E8CF6F45
:1003D0000120002EFAD1C4E8460F002EF6D1BFF35B
:1003E0005F8F4FF0010CC80801F007030CFA03F30C
:1003F0001EF800C01CEA030608D14CEA030C0EF8F4
:1004000000C0C4E88F6F85F3108870BD1046FFF7F9
:10041000BFFF00BF43160020044A1078431CDBB224
:10042000182B28BF10231370704700BFB011002095
:100430004FF0E022936843F000539360704700BF91
:100440000021044B03F12002C3E88F1F01339342C4
:10045000FAD17047381600204FF0E0234FF0803279
:10046000C3F80024C3F80424C3F80824C3F80C24F8
:10047000C3F81024C3F81424C3F81824C3F81C24A8
:10048000C3F82024C3F82424C3F82824C3F82C2458
:10049000C3F83024704700BF012300F01F029340CF
:1004A000400941B1800000F1604000F56140C0F8B2
:1004B000803103607047024A203042F82030704794
:1004C00000E100E0F8B50D46EFF3108772B6124E6A
:1004D000D6E8CF2F0123002AFAD1C6E8423F002AEE
:1004E000F6D1BFF35F8F0D4B00F110049B680C4AEF
:1004F00053F82430934203D0994201D000F08CFE8F
:10050000064B9B6843F82450BFF35F8F0023C6E877
:100510008F3F87F31088F8BD4116002000ED00E002
:100520001D0100102DE9F04F83B0EFF3108A72B671
:10053000714ED6E8CF2F0123002AFAD1C6E8423FF8
:10054000002AF6D1BFF35F8F6C4B00F110089B6857
:100550006B4A53F82850954245D08D420C4650D0F6
:10056000684FEB1B2F2B3ED801214FEA50194FEA61
:10057000890909F1604909F5614900F01F0301FA91
:1005800003F0D9F80030C9F8800000EA030BBFF38C
:100590005F8FEFF30581C9B2002934D0884505D0BB
:1005A000CDE9001000F038FEDDE9001025F0010E65
:1005B000DEF808C0644505D189E0D3F808C0644579
:1005C00031D09E469EF9062002EB4203002A07EB3B
:1005D0008303F2DA644561D0BBF1000F20D0C9F883
:1005E0008001C9F80000454B9B6843F82850BFF3D1
:1005F0005F8F0023C6E88F3F8AF3108803B0BDE801
:10060000F08F1546EFE725F0010EDEF808C06445CF
:10061000D8D19EF906407346002C08DA154646E00C
:10062000C9F88000DFE793F90640002C37DB04EBC4
:10063000440C07EB8C0C9CF80710DCF80820D971EF
:100640009A609CF906206100002A9A713DDBBCF893
:1006500004E05FEA4E5E05D50EF5FF1E0EF5FF5E67
:100660000EF11F0E6FF0070C0A194FEA6E5E920032
:1006700002EB4E0208323A44ACEB030C6244C2F384
:100680004A026FEAC2426FEAD2429A801E4B21446C
:100690001A7807EB81011C708A719DE77346D9B9FE
:1006A000FF228EF806204BF60152AEF80420164CBD
:1006B0004AF6AA2294F800C01946C91B49414A4388
:1006C000120D83F806C0227086E7104ADDE79EF916
:1006D00006407346002CAADA0D4A0E4CD21A083A8C
:1006E000C2F30A316FEA01516FEA115144EA520232
:1006F000DA80998070E700BF4116002000ED00E02D
:100700001D010010B4110020E816002001BDFFFFFC
:10071000EE11002000F8FFFFF0B5EFF30585EDB214
:10072000EFF3108C72B62649D1E8CF2F0123002AAF
:10073000FAD1C1E8423F002AF6D1BFF35F8F214EC4
:1007400040F0010EB4684AF6AA2354F825701E4AF8
:100750000446A41A644163431B0D77455BB21BD06A
:1007600092F906409C421CD092F912409C4223D040
:1007700092F91E409C4221D092F92A409C4208BF27
:1007800003240FD0114A0024157813708571C1E835
:100790008F4F8CF31088F0BDB2680D4C42F82540A5
:1007A000F0E7002404EB440402EB8402FF2494717C
:1007B0004BF601549480E5E70124F3E70224F1E7C6
:1007C0004116002000ED00E0B4110020E8160020E2
:1007D0001D010010014B0B440360704738160020C8
:1007E00070B5104C104DAC420ED2FF26236863B199
:1007F000FFF712FE01462046FFF7ECFFA680BFF38D
:100800005F8F0834AC42F1D370BDFFF705FE01469F
:100810002046FFF7DFFF2671BFF35F8F0834AC423D
:10082000E4D370BD78130020801300200D4B1A68AC
:10083000EFF3108172B6D2E8CFCF0120BCF1000FE8
:10084000F9D1C2E84C0FBCF1000FF4D1BFF35F8FB8
:1008500000221B68C3E88F2F81F3108840BF00205F
:1008600000217047DC1600202DE9F04F2DED028BA2
:1008700085B0EFF30583DBB2103B9A0818BF012265
:100880004FF0010103F0030B18BFAF4DAF4B08BF92
:10089000AF4D0BEB820253F8226001FA0BF205F523
:1008A00041539FEDA78B01925A602FE0B3881C043F
:1008B00040F19380B379002B40F0DD80B6F9082039
:1008C000002AC0F21E81736902EB420203EBC203ED
:1008D000D3E90247B7F1FF3F08BFB4F1FF3F0ED0A5
:1008E00005EB8B01AB6A0A69D21AE31A934205D36E
:1008F00001232A6A03FA0BF3134200D10C61284644
:1009000000F0CAFAA042B941C0F2FB80B6F9083043
:10091000019A002B0093EA63C8DBD6F8148003EB3E
:100920004309284608EBC907D7E9024A00F0B4FAA0
:10093000A04271EB0A01B9DBBAF1000FC0F2C3802B
:10094000D7E90431834A934200F0ED807A88B6F902
:10095000080092B242EA0040984702460B4652EA2B
:10096000030100F0B080002B80F2D180B4EB020EC6
:100970006AEB030A38F93930C7E902EA002B95DB44
:10098000716903EB430201EBC202D2E90270BE457A
:100990007AEB000C4FEA430288DBB4462CF8083FA0
:1009A00006E003EB430001EBC0005A00D0E90270FF
:1009B000BE451A447AEB000001EBC20404DB31F9B6
:1009C0003230A446002BECDA28F83930009BACF822
:1009D0000030B3881C043FF56DAF3369EFF310822C
:1009E00072B6D3E8CF0F01210028FAD1C3E8401F27
:1009F0000028F6D1BFF35F8F4FF6FF74B088002355
:100A0000316900B2B480C1E88F3F82F31088984208
:100A1000FFF650AF0746A946746906F1080807EBD0
:100A2000470E04EBCE03D3E90250B6F90830C446B2
:100A3000002B13DBB246009704E034F936309446BD
:100A4000002B09DB03EB430604EBC602D2E902717B
:100A5000BD4270EB0101F0DA5646009FACF8007021
:100A600034F93E7024F83E30002FD8DAB3794D4681
:100A7000002B3FF423AF0023B371B6F9083006F121
:100A80000808581C3DD01A46776903E08046591C77
:100A90003FF416AF03EB430107EBC100B0F802C00F
:100AA0001C461CF4004F9E4637F93130EED094427C
:100AB00080ED028B05D0A8F80030328927F831206C
:100AC00034817246E3E738F8393033813369EFF324
:100AD000108272B6D3E8CF0F01210028FAD1C3E803
:100AE000401F0028F6D1BFF35F8F7388316928F863
:100AF0003930009B73800023C1E88F3F82F3108858
:100B0000D4E640BF05B0BDEC028BBDE8F08F2846AF
:100B1000CDE9022300F0C0F9029A039B10EB020E0C
:100B200043EB010A26E708460B6902919847002823
:100B3000C9D00299D1E9002311E700BFAFF30080CB
:100B4000FFFFFFFFFFFFFFFF00800B40B4160020F8
:100B500000000B40690800102DE9F84F364C25695C
:100B60002DB1BDE8F84F0A213448FFF733BEDFF856
:100B7000E4800321404600F07DF90326C4F80C8090
:100B8000FFF74AFC4FF0504C2D4B26700344236175
:100B9000DCF800300F216370636961801D834FF0C2
:100BA0000405A3F878504FF00505A3F890504FF0D6
:100BB0000605A3F8A8504FF007050E214FF6FF7267
:100BC00008274FF00A0EA3F8C0504FF001094FF06C
:100BD0000C0C4FF0020B4FF0090A0D204FF00B05E3
:100BE000A3F868111749A280A3F808E1A160A3F84F
:100BF00048B0A3F8F0A0A3F82051A3F838C1A3F897
:100C00005001A3F83090A3F86060A3F8D8701A8060
:100C10000D4B3046C8F820700C49DC60FFF752FCE1
:100C200049463046FFF738FC094B0A211F64034848
:100C3000BDE8F84FFFF7CEBDFC110020DC16002008
:100C400038160020FFFF1000B416002069080010BD
:100C500000200B4000000B400146F0B50069EFF3A7
:100C6000108772B6D0E8CF5F0124002DFAD1C0E81A
:100C7000454F002DF6D1BFF35F8FB1F902E04C690B
:100C80000EEB4E0CBEF1000F4FEACC05086904EBE9
:100C9000CC0C3CDB665B4E800026C0E88F6F87F390
:100CA0001088BCF80200CCE902230130C0F30E002A
:100CB000012838BF0120059BACF80200CCF81030A9
:100CC000069B40EA0E40CCF814300B69EFF310821B
:100CD00072B6D3E8CFCF0127BCF1000FF9D1C3E83A
:100CE0004C7FBCF1000FF4D1BFF35F8F8B8863534F
:100CF000A1F804E00B69C3E88F6F82F3108801222A
:100D0000CB68097803F501538A405A60F0BD00238F
:100D1000C0E88F3F87F310884FF0FF30F0BD00BF71
:100D200003464089B0EB214F37DD58690A1402EBC6
:100D3000420210B500EBC2001C69EFF3108C72B6D2
:100D4000D4E8CFEF0122BEF1000FF9D1C4E84E2F55
:100D5000BEF1000FF4D1BFF35F8F428889B292B227
:100D60008A4207D000221B69C3E88F2F8CF31088BA
:100D7000002010BD42F40042428001210022186987
:100D80009971C0E88F2F8CF310881C78DA680846B8
:100D900002F50153A140596010BD0020704700BF0B
:100DA0002DE9F04306460D4683B0EFF30584E4B227
:100DB0003CB12D4B5A6AAA421CD2002003B0BDE8B8
:100DC000F0832A4FD7F80C9097F80080484600F03F
:100DD00063F808F1040859F828301B1A301A65EB3B
:100DE0000101984271F1000110DB20BF1E4B5A6ACD
:100DF000AA42E2D314BF012400249B6AB34234BF49
:100E0000204644F0010003B0BDE8F08300F04CF848
:100E1000864265EB0101002914DB154B3846CDE90C
:100E2000003432462B46FFF717FF011E0ADD0E4B3A
:100E30005A6AAA4216D39B6AB34211D30B48FFF7F2
:100E40006FFFB6E7084B5C6AAC42B6D3641B18BFB1
:100E500001249B6AB34234BF204644F00100ADE751
:100E6000AA42EBD120BFE9E700000B40FC110020B3
:100E70002D08001010B4054B054C064AA04214BFC3
:100E80001846581C5DF8044BFFF79ABA601600200C
:100E900000800B406C1C00100346416A0A46986AA9
:100EA000596A8A42FAD17047034B596A0A46986ACE
:100EB000596A9142FAD1704700000B4030B4154A8C
:100EC000536A9C46946A536A6345FAD102195941A0
:100ED0004FF0000528BF01250E4B5B6AB5B15A1CC7
:100EE00008BF1A4608D04FF0FF310A460948436A46
:100EF0008B42FCD38B4207D1064902E0486A9842F4
:100F000002D1886A9042F9D330BC70479942EDD83B
:100F1000F0E700BF00000B40F8B5054606200E467E
:100F200000F0E4F8002842D0354A3648954214BF14
:100F30004FF080624FF00062334B344902601A6018
:100F40008C6832EA0404FBD12D4B4FF48071EB1A0C
:100F5000B3FA83F32E4A5B09062022F8131000F03F
:100F6000C5F8C300B3FBF6F30133DA0920D14026FC
:100F700001216962AA622F6BFB0722D42B46002253
:100F800053F82C1F062003F5805422602F6300F0D5
:100F9000ADF840F2013103228000B0FBF6F0EB6ABD
:100FA00083F0700303F07E0323602963AA64F8BD15
:100FB0004FF6FE718A421BD922464FF6FF71154E3D
:100FC000D7E740F2013205F540531A636B6AAC6A09
:100FD000062004EB831400F089F80F4BA402A3FB56
:100FE0000023DB0A0021B4FBF3F0FFF767FFC5E73E
:100FF000C3F34503114603EB82161A46B9E700BF57
:101000000080074000200240003002400000024003
:10101000E0160020C0FF3F00757B2B8F00EB400CDB
:101020004FEA8C0C0CF1804C0CF5803CF0B5164668
:10103000DCF80420051FB2F5803F38BF4FF4803242
:10104000EDB238BFCCF80420012D2AD94FF4006747
:10105000254C0CF54052176054F82020B2B9DCF84A
:101060000020012D82EA461202F0E0020CF58056C3
:1010700032602AD94FF4006144F820304FF48033B5
:101080000CF500521160CCF80430F0BD6769B7FB75
:10109000F2FE0EF1010E0EEB4E0EBEF1030EFCD26F
:1010A000DDE70129D2D103240CF540521460DCF8AD
:1010B0000820D207FBD5DCF800200B4C82EA461250
:1010C00002F0E0020CF5805632600122DCF800509C
:1010D0004D4005F00305356002FA01F1DCF8082007
:1010E0000A42FBD0C6E700BF64160020014B53F84C
:1010F000200070476416002070B4039D04682D031F
:1011000045EA03451B4B002CB3FBF1F3B2FBF3F6AE
:101110001FDB194A194B904214BF4FF480424FF421
:101120000042174C1A6003F580531A60A36832EA34
:101130000303FBD1212200F5405304330160866094
:101140001A600268002AFCDA0822C5601A6070BCC6
:101150007047036803F03F038B42DAD18368C3F31F
:101160000B03B342D5D1C36803F4EE23AB42D0D115
:10117000EDE700BF001BB7000080054000200240E3
:1011800000000240012300EB4000800000F180409D
:1011900000F5841041600360704700BF0023DB8AC4
:1011A000002242E800F2520201D410211847042123
:1011B000184700BF034AD2F82838002BFBD0BFF3F2
:1011C0005F8F704700000E400021044B044ABFF3BC
:1011D0005F8F43F8041B9342F9D170470C080E400F
:1011E0002C080E4010B44FF48D704FF42A64064A58
:1011F000064B07491460D06019605368002BFCDA75
:101200005DF8044B704700BF0080044000A004401C
:1012100000B0FA00704700BF08B50148FFF7B8F802
:10122000901C001038B5054C054DAC4204D254F862
:10123000043B9847AC42FAD338BD00BF101C0010E5
:10124000501C001010B40748074C084B084A0949C5
:1012500004601A608B6832EA0303FBD15DF8044B2B
:10126000704700BF002002407F3BEFEF003002409C
:10127000F6FFF30300000240044BDB6CB3F5004FB4
:1012800003D14FF48022024BDA6470470000115002
:10129000002011504FF0E022044BD2F8881D0B4380
:1012A000C2F8883D10EE3004704700BF03033000E1
:1012B0006FF06041044B054A19609368DB4333F0DB
:1012C0006043FAD1704700BF003002400000024086
:1012D00010B545F25320FFF761FFBDE8104003460B
:1012E0000420184710B545F25320FFF757FFBDE81B
:1012F0001040034601201847FFF7A2B810B5054B70
:10130000054C4FF488721846A16800F0D1FBA0602C
:1013100010BD00BF0000002000ED00E0002370B50C
:101320002B4C82B0C4F88430FFF75CFF0122294BBC
:10133000DA63636C012BFCD10321264A244B116331
:101340009C6B012CFCD10226052521460523224A4F
:1013500022480096FFF7D0FE21462B46204A21481E
:101360000095FFF7C9FE0022042031461E4BFFF70F
:1013700055FE2146284600221C4BFFF74FFE002257
:10138000082011461A4BFFF749FE0022092011469A
:10139000174BFFF743FE002206201146134BFFF7C1
:1013A0003DFE0022114B07201146FFF737FE0420B7
:1013B000FFF79CFE00240F4BA3FB0035AD0CE0B201
:1013C00029460134FFF7DEFE062CF8D102B070BDCD
:1013D0000000014000300140002F68590000054026
:1013E000008C864700800540001BB70080D1F008C4
:1013F000006CDC0283DE1B4300B9704700F022B9A9
:1014000010B5094B84B01C684CB1034600914FF0F5
:10141000FF3203A90548A047012004B010BD00F029
:1014200053F9204604B010BD98160020F91300109F
:1014300000BEFDE7002070474FF0FF30704700BF4F
:1014400008B5FFF7F5FF00BF38B5064C064DFFF7AE
:10145000E9FEAC4204D254F8043B9847AC42FAD3BC
:1014600038BD00BF501C0010581C0010036808460F
:10147000114618472DE9F0411546427D074688463A
:10148000002A46D0002D1DDD0B780A2B23D0012D1C
:101490004FF0000C18D04646012416F8012F2146C3
:1014A0000A2A04F1010422D0A542F6D165450BDCDD
:1014B00008EB050313F8013CA3F10D03B3FA83F322
:1014C0005B093B75BDE8F0813B68A5EB0C0108EBBF
:1014D0000C009847ECE7037D002BD8D1036802216C
:1014E0000F489847012DE3D04FF0010CD3E716F8D1
:1014F000013C0D2BD8D08C4508EB0C00A1EB0C0166
:1015000001DA3B689847022105483B689847A446A2
:10151000CAE7294640463B68BDE8F041184700BF8E
:101520006C1D00102DE9F04782B00D4691461C4617
:101530000646FFF7B9FC4FF0FF3C6FF000472E4A1C
:10154000821841F10003944577EB03013CBF6246EA
:101550003B462A4800F058FB6B1C804640D00CB339
:10156000274F284B1C68B4B1B9F1000F1CD1DFF82C
:101570009C9001E0246974B12368002BFAD0D9F85B
:1015800000300BB19C42F5D120462A463146B8477F
:101590002469002CF0D1B8F1000F26D1284602B002
:1015A000BDE8F087184FDCE74FF00A0ADFF85C90DF
:1015B00002E02469002CEED02368002BF9D0D9F882
:1015C00000300BB1A342F4D12A4631462046B84739
:1015D000012220460DF107018DF807A0B847E8E782
:1015E000304600F0DBFA0546B9E7044800F008FB96
:1015F000284602B0BDE8F08740420F007813002073
:10160000751400108C1600206D1400109416002024
:10161000084A136823B90AE003F110021B6933B1C9
:101620008342F9D129B9186910601961704701B175
:10163000106070478C16002008B500F033F90120C7
:1016400008BD00BFF0B583B006468DF80700FFF770
:101650002BFC4FF0FF356FF00044174A821841F120
:101660000003954274EB03013CBF23462A4613480E
:1016700000F0CAFA124B07461C689CB1114D01E0FC
:1016800024697CB12368002BFAD02B680BB19C42F3
:10169000F6D1204601220DF10701FFF7EBFE246988
:1016A000002CEFD117B9304603B0F0BD034800F06D
:1016B000A7FA304603B0F0BD40420F007813002077
:1016C0008C1600209416002038B5044600F066FA07
:1016D000012305461A4620462946FFF723FF084BFB
:1016E0001C682CB163682BB198472469002CF9D190
:1016F000284638BD2469002CF4D1284638BD00BFE7
:101700008C160020B1F1000C1DDD0F4A0F4B126842
:1017100030B5D31AB3FA83F30D240D4D5B09411E86
:1017200035F913E08C4411F8010F864506D0936912
:101730009B06FCD461451060F5D130BD93699D06D0
:10174000FCD41460F3E77047E416002000800740E3
:10175000E0160020224BB1F1000C10B41C682EDD05
:10176000034600201F4A591E12689369DB0617D4EE
:1017700001309369DB06FCD41368844501F8013F0E
:10178000F3D14CB150211346916353F8342F02F03A
:10179000380203F580531A6060465DF8044B7047C9
:1017A0004CB150211346916353F8342F02F03802A4
:1017B00003F580531A6078B15DF8044B70475CB153
:1017C000084B50211A681346916353F8342F02F0E6
:1017D000380203F580531A606FF00200DDE700BFA6
:1017E00058160020E4160020054B1B6833B1002179
:1017F000044A05481268006891631847704700BFA3
:1018000058160020E41600205C160020024B1A68CF
:1018100093691B07FCD47047E4160020F8B51C4FF1
:101820001C4D3A681C4EAA4214BF212522250446AD
:10183000D6F800C018B1BCF1000F10D0F8BDBCF153
:10184000000FFBD0014690632846FEF725FE284690
:101850001249FEF767FE124B34601C60F8BD0B4660
:101860000F4A0E49306028461360FEF72BFE012117
:101870002846FEF711FE3A6850211346916353F84B
:10188000342F02F0380203F580531A60F8BD00BF10
:10189000E41600200080074058160020E9170010C9
:1018A0005C16002010B50E490E4C0F480F4A104B25
:1018B000007821600020022112781B78FEF712FDCB
:1018C00002210120FEF70EFD4FF4E1312068FFF701
:1018D00023FBBDE8104001210648FFF799BE00BF79
:1018E00000000740E4160020581E0010541E00108F
:1018F000501E001014120020F8B5044605200F46B3
:10190000FFF7F4FB00EB570CBCFBF7FC204D0CEB96
:101910004C02A5FB02651F49AE088F4200EB400355
:10192000ACEB95052ED801F1D64101F5A10101F6E8
:101930002C01A1FB03139B0D013300214F2A98BFFB
:1019400001222468B0FBFCF0E166216804F58057B1
:1019500081F0040101F00601396088BF0C49E5619E
:1019600084BFA1FB021292092662C4F8A02022467D
:10197000012152F87C5F6B409BB202F580521360EC
:10198000E166F8BD0449A1FB0313DB0D0133D4E785
:10199000CDCCCCCC3F420F00893BE6550E4A30B44B
:1019A000904214BF202210220C4D0D4B0D4C2A608A
:1019B0001A60A36832EA0303FBD140F265150324E1
:1019C00002680371D3661560D3639363C2F88840DD
:1019D00030BCFFF791BF00BF2C1200200020024056
:1019E000003002400000024000B545F247308BB0A5
:1019F000FFF7D4FB01220346092101A89847DDE93E
:101A00000332044912BA1BBAC1E900230BB05DF8D6
:101A100004FB00BFD4160020062008B500F004F82F
:101A20000120FFF705FD00BF38B51F28134B1D68C7
:101A30001ED8D5F83821044662B152F820304BB197
:101A4000012B05D0591C0FD0002142F820109847D7
:101A5000002038BD284600F029F8224601462846D5
:101A6000BDE8384000F00CB8162301202B6038BDCB
:101A700016234FF0FF302B6038BD00BF341200201A
:101A800070B50C460346084D0026204611461C46FC
:101A90002E60FFF7D1FC431C00D070BD2B68002BDB
:101AA000FBD0236070BD00BF90160020FFF7C2BCC2
:101AB000844641EA000313F0030349D1403A23D39B
:101AC0000B6803604B6843608B688360CB68C360BE
:101AD0000B6903614B6943618B698361CB69C361A6
:101AE0000B6A03624B6A43628B6A8362CB6AC3628E
:101AF0000B6B03634B6B43638B6B8363CB6BC36376
:101B000040304031403ADBD230320BD30B680360B7
:101B10004B6843608B688360CB68C36010301031C2
:101B2000103AF3D20C3205D351F8043B40F8043B91
:101B3000043AF9D2043208D0D2071CBF11F8013B95
:101B400000F8013B01D30B8803806046704700BF5B
:101B5000082A13D38B07B1D010F00303AED0C3F122
:101B60000403D21ADB071CBF11F8013B00F8013B4C
:101B7000A4D331F8023B20F8023B9FE7043AD9D3C3
:101B8000013A11F8013B00F8013BF9D20B780370E0
:101B90004B7843708B7883706046704720F0030168
:101BA00010F00300C0F1000051F8043B00F1040CF8
:101BB0004FEACC0C6FF000021CBF22FA0CF2134368
:101BC0004FF0010C4CEA0C2C4CEA0C4CA3EB0C0231
:101BD00022EA030212EACC1204BF51F8043B04309B
:101BE000F4D0C2F1000102EA0102B2FA82F2C2F1BB
:101BF0001F0200EBD2007047F8B500BF00000000E4
:101C00005FF800F0E50100205FF800F07D010020A2
:101C1000D112001045120010791200101D1300108F
:101C2000B1120010C9110010F9120010B511001006
:101C3000E1070010FD120010590B001015120010E2
:101C4000E512001095120010310400105904001024
:081C500019020010E91900104F
:101C58000A2A2A2A2050414E4943202A2A2A0A00C1
:101C68000A000000486172647761726520616C61E6
:101C7800726D20256420616C726561647920636CE3
:101C880061696D6564000000486172642061737366
:101C98006572740052656C6561736500626F6F747C
:101CA800325F77323571303830000000302E310025
:101CB800322E312E310000007069636F325F770079
:101CC80070726F6A2D7069636F3277004A756C2085
:101CD8003239203230323500554152542073746401
:101CE800696E000055415254207374646F75740016
:101CF8005541525420737464696E202F20737464A4
:101D08006F75740006005250D3F075429C1C001089
:101D180006005250E182887FA41C00100600525031
:101D28003ABCA911B41C001006005250ABB3605362
:101D3800B81C001006005250BBFF3CB6C01C001077
:101D480006005250861C0302C81C001006005250A0
:101D58005422A29DD41C001005005250DE65F46880
:101D6800E03000100D0A00000600525053B4F4A1F0
:101D7800F81C0010080052501200000008005250D1
:041D880092100000B5
:0C1D8C0008B10181B0B00084000000002C
:101D9800A4E4FF7FB0B0A88044E5FF7F0100000005
:101DA80010E5FF0FB0A90280A0E5FF0FB0B0A88032
:101DB800F0E5FF0F01000000F8E5FF0FB0B0AA80C2
:101DC80030E6FF0FAF76B28004E7FF0FAB3F3A80F3
:101DD80068E7FF0F0100000074E7FF0FB0B0AA80AA
:101DE800B0E7FF0FA0FFFF7FC8E7FF0F010000006B
:101DF80058E8FF0FAC0FB280D8E8FF0FB0AF0880EB
:101E08007CEBFF0F010000008CEBFF0FAC3F038061
:101E18008CEEFF0F010000006CF0FF0FB0AD0480E6
:081E28006CF3FF0F0100000044
:101E30000C1D0010181D0010241D0010301D001076
:101E40003C1D0010481D0010541D0010601D0010A6
:0C1E5000841D00107C1D0010701D00108F
:101E5C004FF050412DE9F0410027044616461D462F
:101E6C00D1F8008008E0C1E88F7F8CF310883046F1
:101E7C00294601F031F8E8B92168EFF3108C72B6FD
:101E8C00D1E8CF2F0123002AFAD1C1E8423F002A22
:101E9C00F6D1BFF35F8F94F904302168002BE2DA9E
:101EAC00002384F80480C1E88F3F8CF31088012054
:101EBC00BDE8F0810020BDE8F08100BF30B50468BA
:101ECC00EFF3108C72B6D4E8CFEF0125BEF1000F02
:101EDC00F9D1C4E84E5FBEF1000FF4D1BFF35F8FB0
:101EEC0090F904400568002C10DB0021C5E88F1F19
:101EFC008CF310884FF0504595F90050A54201D154
:101F0C00084630BDBDE83040FFF7A2BF4FF050424D
:101F1C00126800230271C5E88F3F8CF310880120F2
:101F2C0030BD00BF0368EFF3108272B6D3E8CFCF99
:101F3C000121BCF1000FF9D1C3E84C1FBCF1000F1B
:101F4C00F4D1BFF35F8F4FF0FF0C0023016880F8D2
:101F5C0004C0C1E88F3F82F3108840BF704700BFB8
:101F6C0003685A004CBF43F0004323F0004318446D
:101F7C00704700BF2DE9F04729B301F1FF3A8046C5
:101F8C00914600255646A91948BF0131491008EB66
:101F9C00C107CC003846FFF7E3FF8A450DD0083463
:101FAC00484508EB04000AD8FFF7DAFF01384D1C4E
:101FBC004845E8D33846BDE8F0874845FAD98D4204
:101FCC0001F1FF36DFD100273846BDE8F08700BFAE
:101FDC00012806D0022802D028B9044870470448CA
:101FEC007047044870470020704700BF85090020E7
:101FFC00950900208D090020224B30B5044683B092
:10200C008D1E43B301A92846AFF30080F0B10199AE
:10201C002A46FFF7AFFF0146C0B1FFF7A1FF4B689F
:10202C00A064012B2AD0002B01F1040024DBFFF764
:10203C0097FF002323650368E064002B11DBFFF797
:10204C008FFF03460020236103B030BD002309201D
:10205C00236103B030BD0C480C49091AC910019119
:10206C00D6E7C3F30360FFF7B3FF031E0CBF0920D1
:10207C000020236103B030BD0123DBE700230520E2
:10208C00E1E700BF00000000981D0010301E00109A
:10209C000368DA0710B5044606D49B0700F150001C
:1020AC0009D500F0B3FC2368590709D51A070ED5DA
:1020BC00DB0613D510BD00F0A1FC23685907F5D43D
:1020CC0004F1D80000F0AAFC23681A07F0D404F538
:1020DC00AC7000F0ABFC2368DB06EBD404F5EC70C1
:1020EC00BDE8104000F0E6BC0346006800B118449F
:1020FC00704700BF704700BF70B504460E46316C88
:10210C002046FFF779FF054698B9D6F840C032460D
:10211C00236921460120C4F814C098470828EED042
:10212C00072806D12846316CFFF7E4FF301D00F07C
:10213C0059FC00F0D5FE00BF2DE9F04F0F1DADF599
:10214C00777DD0F80C900646D0F818A014460DF107
:10215C000C0C02AD4FF0000E0DF5F8780FCFACE87B
:10216C000F000FCFACE80F000FCFACE80F0097E8D3
:10217C000F00C5F800E08CE80F0021E02B6C4FF449
:10218C00F47229464046736100F0AEFE3369424654
:10219C003146584698472146D8F8384007463346CA
:1021AC003246AC640120CDE9005AC847044618BB3E
:1021BC004FF4F4724146284600F096FE082F19D1D0
:1021CC000934296C3046FFF717FF07465FFA84FB8A
:1021DC000028D3D0AC6B334632464BF01001AC64C4
:1021EC000120CDE9005AC84730B938460DF5777D46
:1021FC00BDE8F08F072F05D0092738460DF5777D00
:10220C00BDE8F08F2046296CFFF774FF03A800F09F
:10221C00E9FB00BFF0B5CB6BFBB001F1040C0F4632
:10222C000B6401AC05464FF0FF3E6E46BCE80F0058
:10223C000FC4BCE80F000FC4BCE80F000FC49CE82F
:10224C000F00CDF800E084E80F0006E02B69324661
:10225C00294698470828044608D1316C2846FFF7D0
:10226C00CBFE0028F2D009207BB0F0BD3046FFF742
:10227C000FFF062CF7D139462846FFF73DFF00BF6C
:10228C0010B4DC6BC1601946826100221C6410BC66
:10229C00FFF752BF70B54369C6680B64AEB90369EA
:1022AC000A4604460D46014602209847072805D0E9
:1022BC0008280FD129462046FFF71EFF3046296C0F
:1022CC00FFF718FF281D00F08DFB0122FFF734FFEC
:1022DC0000F006FE00F004FEC26808B542B1D1F869
:1022EC003CC00022BDE80840C1F840C0FFF724BF45
:1022FC00FFF790FF092008BD052915D8DFE801F08C
:10230C000A031403030501207047436C0020009A54
:10231C001360704743B90F2A06D800EB82020020E5
:10232C005368009A136070470220704710B584B050
:10233C0000230A4603AC19460094FFF7DDFF03980F
:10234C0004B010BD052915D8DFE801F00A03140309
:10235C00030501207047009B1B68436400207047F5
:10236C0043B90F2A06D8009B00EB820200201B68A1
:10237C00536070470220704710B584B0002303AC43
:10238C0003920A4619460094FFF7DCFF04B010BD17
:10239C002DE9F041D36BADF5107D141D804613640F
:1023AC000DF15C0C0F4616AD4FF0FF3E6E460FCC98
:1023BC00ACE80F000FCCACE80F000FCCACE80F0072
:1023CC0094E80F00C5F800E08CE80F0010E0FFF770
:1023DC00D3FF39462846C04703462A4631460820D3
:1023EC0083B933699847052804460CD009280AD0CC
:1023FC00296C3046FFF700FE034632460C21284676
:10240C00002BE4D009242846FFF742FE20460DF5A8
:10241C00107DBDE8F08100BF2DE9F04F1646CA6C67
:10242C0089B00D4652F8041B00F0030C0692E3B180
:10243C000C0C09048DF81D40E4B20591022102EB4D
:10244C008402BCF1020F8DF81C10296D08BFAA6B19
:10245C0011F001080FD005A9304600F0B7FB002899
:10246C0061D1082009B0BDE8F08F09028DF81D304C
:10247C0005910321E5E71768002FECD000F0080167
:10248C00BB469A4667460191CDF80880BAF1020F17
:10249C004DD0B2F800B002F10409548824F00102C6
:1024AC00AB6C64000F2102EB03083046FFF73EFFD4
:1024BC0004F002040BF00103804543EA04032CD81A
:1024CC002BF0010B012BC34468D0022B41D053BB22
:1024DC0017B1834500F2D08009F10402D2F800B0A4
:1024EC00BBF1000FD2D105A93046DDF8088000F011
:1024FC006DFBC0B9B8F1000FB3D00F213046FFF718
:10250C0015FF0E2102463046FFF736FF6C4A0F21AD
:10251C003046FFF731FF0720A4E7012B3AD0022BFE
:10252C0009D0002BD8D0092009B0BDE8F08F546831
:10253C0002F10809B2E7D9F8004024F0004877B955
:10254C00002C01DA09F1040908F1010309EB8302FB
:10255C00C4E7D9F8004024F00048002F61D0D5F82A
:10256C0020B00D213046FFF7E1FE8345E8D1AA6A81
:10257C009145E5D100240422C5F82880C5E90B4219
:10258C004A446A63D9F80020A242C0F29380012326
:10259C000293D9E71FB909F108029FE7BFB12C6A72
:1025AC000D213046FFF7C2FE8442F4D1AB6A994547
:1025BC00F1D14846FFF7D4FC0F2102463046FFF715
:1025CC00DBFE2A4600213046FFF7D6FEA3E7834503
:1025DC00E1D9D9F80430D9F80020991C4FEAD2720D
:1025EC00A1D005F15804013304945CD009F1040026
:1025FC00FFF77AFD04AB01462846AFF300800028B4
:10260C00C9D004460D213046049EFFF78FFE022CE4
:10261C00286202D1EE6205F12C060620C5E9096993
:10262C0020E783458CD9019B13B1B8F1000F87D1FA
:10263C0005F15803039709F1040B00241F460CE025
:10264C00584600220497FFF74FFD04AB014628467D
:10265C000BF1040BAFF3008008BB444504F10104FB
:10266C00EED10D213046FFF761FE049B0246062099
:10267C002A62C5E90939F5E64846FFF771FC09F10C
:10268C00040204462846AA63AFF3008000283FF4F6
:10269C004AAF22460F213046FFF76EFE3BE7039F01
:1026AC00D9F800404CE730460D21FFF73FFE264697
:1026BC002862B2E708F1010209EB82007AE700BF59
:1026CC00000000000023FFF7A7BE00BF0123FFF7A7
:1026DC00A3BE00BF0223FFF79FBE00BF2DE9F04150
:1026EC000546C4B01446052904D8DFE801F0122BC6
:1026FC00036B9107022044B0BDE8F081836B002C82
:10270C00F8D153F8042B42648363002044B0BDE835
:10271C00F081002BEED11FFA84FC806B01262F1D5B
:10272C0006FA03F1024611EA0C0F04D052F8041B0E
:10273C00104647F823100133102BF1D1A404E4D434
:10274C00A863E2E703F0FB02260CA4B2012AD1D164
:10275C00012B06EB040200F0B880202ACAD80F2EF9
:10276C007BD9002CD1D002680193510700F10B8169
:10277C0002AF384600F056F9D5F838C0019B102E40
:10278C0031464FEA4404604638BF102104F1FF3E45
:10279C0007EBC1017246843950F8044B013A41F8F9
:1027AC00044F541CF8D10CF1040C012B0CEB8E02D1
:1027BC0000F0C3800F2EAA6340F2C880384600F0A8
:1027CC002DF9A2E7032B95D11FFA84F8260C08EB00
:1027DC001444102C8ED80368180700F19B8022AF8C
:1027EC00384600F045F9AC6B4FEA480107EBC603DD
:1027FC004A1E41B1E01A1958013A43F8041B511C06
:10280C00F9D104EBC8043846AC6300F00FF97CE74F
:10281C00002B7FF46FAF102C3FF66CAF0368DA0619
:10282C0070D422AF384600F04FF9AE6B3946002316
:10283C004FF0010C0CFA03F230460133224203D064
:10284C0050F8042B06460A60042B01F10401F1D167
:10285C003846AE6300F02EF957E7102A40F29A8002
:10286C002968A2F11004CF0774D44A0708D521F0C7
:10287C0004012846019340F8D81B00F0D3F8019BC3
:10288C0022AF0193C6F11008384600F0C3F802A835
:10289C0000F0C8F8D5F838C0019B4FEA48086046EC
:1028AC0007EBC60108F1FF3804394246013A50F8EB
:1028BC0004EBB2F1FF3F41F804EFF7D10CF1040C3B
:1028CC000CEB880C74B302AF59E7102A3FF612AF29
:1028DC00102E3FF40FAF0268D10707D522F0030288
:1028EC00019340F8502B00F08DF8019B22AF01931F
:1028FC00384600F087F8D5F838C0019BFCB1A046EB
:10290C000024CAE723F0100300F5EC702B6000F0F4
:10291C00DBF886E723F0080305F5AC702B6000F0BC
:10292C00A7F85CE7012B0AD00F2EC5F838C03FF68C
:10293C00ECAE384600F06AF8E7E6944622AF0CF1AC
:10294C0004033846AB6300F059F8DEE622A800F029
:10295C005DF833E721F001022846019342F00202B0
:10296C0040F8502B00F056F82A68019B12F0040F27
:10297C0086D022F004022846019340F8D82B00F0B0
:10298C0051F8019B7CE722F0040240F8D82B00F0B0
:10299C0049F8EDE60268D0070CD422AF0193384613
:1029AC0000F038F8002CC4D0A046D5F838C000246C
:1029BC00019B72E7052B01930AD122F001022846F4
:1029CC0042F0020240F8502B00F024F8019BE4E79F
:1029DC0022F00302284640F8502B00F013F8019B1C
:1029EC00DBE700BF00F1340191E838009C46A646B5
:1029FC004CF8045D90E8FF0FE54600BD90EC210B10
:102A0C00704700BF80EC210B704700BF90EC200B8F
:102A1C00704700BF80EC200B704700BFD0EC200B40
:102A2C00704700BFC0EC200B704700BFF0EC0201F8
:102A3C00F0EC0211F0EC0221F0EC0231F0EC02416E
:102A4C00F0EC0251F0EC0261F0EC0271F0EC02815E
:102A5C00F0EC0291F0EC02A1F0EC02B1F0EC02C14E
:102A6C00F0EC02D1F0EC02E1F0EC02F1704700BFA7
:102A7C00E0EC0201E0EC0211E0EC0221E0EC0231AE
:102A8C00E0EC0241E0EC0251E0EC0261E0EC02719E
:102A9C00E0EC0281E0EC0291E0EC02A1E0EC02B18E
:102AAC00E0EC02C1E0EC02D1E0EC02E1E0EC02F17E
:102ABC00704700BFB0FC0181B0FC0191B0FC01A1DA
:102ACC00B0FC01B1704700BFA0FC0181A0FC0191DA
:102ADC00A0FC01A1A0FC01B1704700BFEC4600B501
:102AEC002DE900502DE9FF1F4FF000032DE90C00DC
:102AFC0001A9FFF78FFBDDF840E012B0704700BF73
:102B0C00EC4600B52DE900502DE9FF1F4FF00003F6
:102B1C002DE90C0001A9FFF7BDFBDDF840E012B078
:102B2C00704700BFEC4600B52DE900502DE9FF1FA2
:102B3C004FF000032DE90C0001A9FFF7CDFBDDF8E8
:102B4C0040E012B0704700BFEC4600B52DE90050D4
:102B5C002DE9FF1F4FF000032DE90C0001ABFFF72F
:102B6C008FFBDDF840E012B0704700BFEC4600B5BB
:102B7C002DE900502DE9FF1F4FF000032DE90C004B
:102B8C0001AAFFF705FCDDF840E012B0704700BF6A
:102B9C00027A03468AB9427AB2B14168013A4FF0DF
:102BAC00030C10B442720C1D086883F808C00202B2
:102BBC005C60000E10BC1A6070470068013A1A7213
:102BCC000202000E1A607047B02070472DE9F043E6
:102BDC00002785B006460D462846FFF7D9FFB028DA
:102BEC00044600F02481030638D500F0F003A02B36
:102BFC0000F083800CD8802B60D0902B04D100F097
:102C0C000D030D2B40F08F80092005B0BDE8F0833B
:102C1C00B02B68D0C02B40D1C62800F0F580C72857
:102C2C0000F0088100F0F803C02B00F01581C828D3
:102C3C0000F02081C928E7D12846FFF7A9FF02033D
:102C4C0000F00F0002F47022013002430121052331
:102C5C003046FFF743FD0028BED0D5E783000DF1C9
:102C6C0008090D223046DBB2CDF8009003F10408C0
:102C7C0000231946FFF740FB029A60064FF0000351
:102C8C003046CDF800904CBFA2EB080242441946E6
:102C9C0002920D22FFF756FB9EE700F0F803D02BB3
:102CAC00B2D100F00702052301213046013242F473
:102CBC000022FFF713FD00288ED0A5E7240228463A
:102CCC00FFF766FF2043B0F5004F9DD004010023B1
:102CDC003046A2B21946FFF701FD002894D1C4F387
:102CEC00C030074378E7A0F1B103042B00F2DE807B
:102CFC00DFE803F0815340362D00C3434FF47F626D
:102D0C00010703F0070342FA03F202F47F6201D5D4
:102D1C0042F48042002330461946FFF7DFFC0028BE
:102D2C003FF45AAF70E70DF10808002300F00F02D2
:102D3C0030461946CDF80080FFF7DEFA00230D224D
:102D4C0030461946CDF80080FFF7FCFA44E703AA99
:102D5C0000233046009219460D22FFF7CDFA3BE7CF
:102D6C000023052130461A46FFF7B8FC00283FF433
:102D7C0033AF49E72846FFF70BFF0123020300F0AE
:102D8C000F001946013002F4702202433046FFF75F
:102D9C00A5FC00283FF420AF36E700230DF108090D
:102DAC000D2230461946CDF80090FFF7A5FA2846BB
:102DBC00FFF7EEFE0206029C4FF002080CD500F065
:102DCC007F0000FA08F008F1070804442846029432
:102DDC00FFF7DEFE0306F2D400FA08F004F50174E6
:102DEC0000230D220444CDF800901946304602947D
:102DFC00FFF7A8FAF0E62846FFF7CAFE431E024684
:102E0C00DBB20E2B86D9FFE62846FFF7C1FE032363
:102E1C00020300F00F001946013002F47022024345
:102E2C003046FFF75BFC00283FF4D6AEECE66FB300
:102E3C000020EAE62846FFF7ABFE431E0246DBB253
:102E4C000E2B3FF6E1AE002304213046FFF746FC83
:102E5C0000283FF4C1AED7E600F00F020323304642
:102E6C000132194642F42022FFF738FC00283FF4C7
:102E7C00B3AEC9E62846FFF78BFE00F0F00200F077
:102E8C000F031032013343EA0232DFE602AC3B4659
:102E9C0039460E2230460094FFF72EFA0F223B469D
:102EAC00394630460094FFF74DFAC1E700F0FC03B9
:102EBC00B42B3FF4A9AE00F00702012330461A44AC
:102ECC00194642F40022FFF709FC00283FF484AEB7
:102EDC009AE600BF000000005FF800F0A10D0010A2
:102EEC005FF800F0191A00105FF800F0B11A00102A
:102EFC0010000000000000000000010000000000B5
:102F0C0000000000000002000000000000000000B3
:102F1C000000030000000000000000000000FF00A3
:102F2C000000000001B5486801318E46004770462C
:102F3C0009380149884701BD19070010000000003D
:102F4C000000000000000000000000000000000075
:102F5C0080130020051700100D18001055170010D5
:102F6C001D180010000000000001000000000940C6
:102F7C0000000000381200200000000000150020A6
:102F8C0068150020D0150020000000000000000093
:102F9C000000000000000000000000000000000025
:102FAC000000000000000000000000000000000015
:102FBC000000000000000000000000000000000005
:102FCC0000000000000000000000000000000000F5
:102FDC0000000000000000000000000000000000E5
:102FEC0000000000000000000000000000000000D5
:102FFC0000000000000000000000000000000000C5
:10300C0000000000000000000000000000000000B4
:10301C0001000000000000000E33CDAB34126DE651
:10302C00ECDE05000B0000000000000000000000BA
:10303C000000000000000000000000000000000084
:10304C000000000000000000000000000000000074
:10305C000000000000000000000000000000000064
:10306C000000000000000000000000000000000054
:10307C000000000000000000000000000000000044
:10308C000000000000000000000000000000000034
:10309C000000000000000000000000000000000024
:1030AC000000000000000000000000000000000014
:1030BC000000000000000000000000000000000004
:1030CC00D3DEFFFFFE010000FF0100006CD0FFFF0C
:0430DC00793512AB85
:040000051000014D99
:00000001FF
